{
  "_format": "hh-sol-artifact-1",
  "contractName": "AgentCallManagerWithVerify",
  "sourceName": "contracts/AgentRegistryAndCallManager.sol",
  "abi": [
    {
      "inputs": [
        {
          "internalType": "address",
          "name": "registryAddress",
          "type": "address"
        }
      ],
      "stateMutability": "nonpayable",
      "type": "constructor"
    },
    {
      "inputs": [],
      "name": "ECDSAInvalidSignature",
      "type": "error"
    },
    {
      "inputs": [
        {
          "internalType": "uint256",
          "name": "length",
          "type": "uint256"
        }
      ],
      "name": "ECDSAInvalidSignatureLength",
      "type": "error"
    },
    {
      "inputs": [
        {
          "internalType": "bytes32",
          "name": "s",
          "type": "bytes32"
        }
      ],
      "name": "ECDSAInvalidSignatureS",
      "type": "error"
    },
    {
      "anonymous": false,
      "inputs": [
        {
          "indexed": true,
          "internalType": "uint256",
          "name": "agentId",
          "type": "uint256"
        },
        {
          "indexed": true,
          "internalType": "address",
          "name": "caller",
          "type": "address"
        },
        {
          "indexed": false,
          "internalType": "uint256",
          "name": "paid",
          "type": "uint256"
        },
        {
          "indexed": true,
          "internalType": "bytes32",
          "name": "invocationId",
          "type": "bytes32"
        }
      ],
      "name": "AgentInvoked",
      "type": "event"
    },
    {
      "anonymous": false,
      "inputs": [
        {
          "indexed": true,
          "internalType": "uint256",
          "name": "agentId",
          "type": "uint256"
        },
        {
          "indexed": true,
          "internalType": "address",
          "name": "to",
          "type": "address"
        },
        {
          "indexed": false,
          "internalType": "uint256",
          "name": "amount",
          "type": "uint256"
        }
      ],
      "name": "PayoutReleased",
      "type": "event"
    },
    {
      "anonymous": false,
      "inputs": [
        {
          "indexed": true,
          "internalType": "uint256",
          "name": "agentId",
          "type": "uint256"
        },
        {
          "indexed": true,
          "internalType": "bytes32",
          "name": "invocationId",
          "type": "bytes32"
        },
        {
          "indexed": false,
          "internalType": "bytes32",
          "name": "resultHash",
          "type": "bytes32"
        },
        {
          "indexed": true,
          "internalType": "address",
          "name": "signer",
          "type": "address"
        }
      ],
      "name": "ResultConfirmed",
      "type": "event"
    },
    {
      "inputs": [],
      "name": "admin",
      "outputs": [
        {
          "internalType": "address",
          "name": "",
          "type": "address"
        }
      ],
      "stateMutability": "view",
      "type": "function"
    },
    {
      "inputs": [
        {
          "internalType": "address payable",
          "name": "to",
          "type": "address"
        },
        {
          "internalType": "uint256",
          "name": "amount",
          "type": "uint256"
        }
      ],
      "name": "adminWithdraw",
      "outputs": [],
      "stateMutability": "nonpayable",
      "type": "function"
    },
    {
      "inputs": [],
      "name": "chainIdCached",
      "outputs": [
        {
          "internalType": "uint256",
          "name": "",
          "type": "uint256"
        }
      ],
      "stateMutability": "view",
      "type": "function"
    },
    {
      "inputs": [
        {
          "internalType": "uint256",
          "name": "agentId",
          "type": "uint256"
        },
        {
          "internalType": "bytes32",
          "name": "invocationId",
          "type": "bytes32"
        },
        {
          "internalType": "bytes32",
          "name": "resultHash",
          "type": "bytes32"
        },
        {
          "internalType": "uint256",
          "name": "nonce",
          "type": "uint256"
        },
        {
          "internalType": "bytes",
          "name": "signature",
          "type": "bytes"
        }
      ],
      "name": "confirmResult",
      "outputs": [],
      "stateMutability": "nonpayable",
      "type": "function"
    },
    {
      "inputs": [
        {
          "internalType": "bytes32",
          "name": "",
          "type": "bytes32"
        }
      ],
      "name": "invocationExists",
      "outputs": [
        {
          "internalType": "bool",
          "name": "",
          "type": "bool"
        }
      ],
      "stateMutability": "view",
      "type": "function"
    },
    {
      "inputs": [
        {
          "internalType": "uint256",
          "name": "agentId",
          "type": "uint256"
        }
      ],
      "name": "invokeAgent",
      "outputs": [
        {
          "internalType": "bytes32",
          "name": "",
          "type": "bytes32"
        }
      ],
      "stateMutability": "payable",
      "type": "function"
    },
    {
      "inputs": [
        {
          "internalType": "uint256",
          "name": "",
          "type": "uint256"
        }
      ],
      "name": "pendingPayouts",
      "outputs": [
        {
          "internalType": "uint256",
          "name": "",
          "type": "uint256"
        }
      ],
      "stateMutability": "view",
      "type": "function"
    },
    {
      "inputs": [],
      "name": "registry",
      "outputs": [
        {
          "internalType": "contract AgentRegistry",
          "name": "",
          "type": "address"
        }
      ],
      "stateMutability": "view",
      "type": "function"
    },
    {
      "inputs": [
        {
          "internalType": "bytes32",
          "name": "",
          "type": "bytes32"
        }
      ],
      "name": "resultConsumed",
      "outputs": [
        {
          "internalType": "bool",
          "name": "",
          "type": "bool"
        }
      ],
      "stateMutability": "view",
      "type": "function"
    },
    {
      "inputs": [
        {
          "internalType": "address",
          "name": "newAdmin",
          "type": "address"
        }
      ],
      "name": "setAdmin",
      "outputs": [],
      "stateMutability": "nonpayable",
      "type": "function"
    },
    {
      "stateMutability": "payable",
      "type": "receive"
    }
  ],
  "bytecode": "0x60806040523480156200001157600080fd5b5060405162001e2238038062001e22833981810160405281019062000037919062000130565b806000806101000a81548173ffffffffffffffffffffffffffffffffffffffff021916908373ffffffffffffffffffffffffffffffffffffffff16021790555033600160006101000a81548173ffffffffffffffffffffffffffffffffffffffff021916908373ffffffffffffffffffffffffffffffffffffffff160217905550466002819055505062000162565b600080fd5b600073ffffffffffffffffffffffffffffffffffffffff82169050919050565b6000620000f882620000cb565b9050919050565b6200010a81620000eb565b81146200011657600080fd5b50565b6000815190506200012a81620000ff565b92915050565b600060208284031215620001495762000148620000c6565b5b6000620001598482850162000119565b91505092915050565b611cb080620001726000396000f3fe6080604052600436106100955760003560e01c80637b103999116100595780637b10399914610184578063d760fb9a146101af578063df0462d9146101ec578063f43b00e414610229578063f851a440146102595761009c565b80630c52df7a146100a15780633f1f6cf7146100de578063401d4482146101075780635164661f14610130578063704b6c021461015b5761009c565b3661009c57005b600080fd5b3480156100ad57600080fd5b506100c860048036038101906100c39190610f40565b610284565b6040516100d59190610f88565b60405180910390f35b3480156100ea57600080fd5b506101056004803603810190610100919061111f565b6102a4565b005b34801561011357600080fd5b5061012e60048036038101906101299190611214565b610780565b005b34801561013c57600080fd5b5061014561085b565b6040516101529190611263565b60405180910390f35b34801561016757600080fd5b50610182600480360381019061017d91906112bc565b610861565b005b34801561019057600080fd5b50610199610935565b6040516101a69190611348565b60405180910390f35b3480156101bb57600080fd5b506101d660048036038101906101d19190611363565b610959565b6040516101e39190611263565b60405180910390f35b3480156101f857600080fd5b50610213600480360381019061020e9190610f40565b610971565b6040516102209190610f88565b60405180910390f35b610243600480360381019061023e9190611363565b610991565b604051610250919061139f565b60405180910390f35b34801561026557600080fd5b5061026e610bba565b60405161027b91906113c9565b60405180910390f35b60056020528060005260406000206000915054906101000a900460ff1681565b6005600085815260200190815260200160002060009054906101000a900460ff16610304576040517f08c379a00000000000000000000000000000000000000000000000000000000081526004016102fb90611441565b60405180910390fd5b60008585858560405160200161031d94939291906114a3565b6040516020818303038152906040528051906020012090506004600082815260200190815260200160002060009054906101000a900460ff1615610396576040517f08c379a000000000000000000000000000000000000000000000000000000000815260040161038d9061153d565b60405180910390fd5b600086868686466040516020016103b195949392919061155d565b60405160208183030381529060405280519060200120905060006103d482610be0565b905060006103e28286610c16565b905060008060008054906101000a900473ffffffffffffffffffffffffffffffffffffffff1673ffffffffffffffffffffffffffffffffffffffff1663513856c88c6040518263ffffffff1660e01b81526004016104409190611263565b600060405180830381865afa15801561045d573d6000803e3d6000fd5b505050506040513d6000823e3d601f19601f8201168201806040525081019061048691906116dd565b9091929394955090919293509091925090915090508092508193505050600073ffffffffffffffffffffffffffffffffffffffff168173ffffffffffffffffffffffffffffffffffffffff1603610512576040517f08c379a000000000000000000000000000000000000000000000000000000000815260040161050990611803565b60405180910390fd5b8073ffffffffffffffffffffffffffffffffffffffff168373ffffffffffffffffffffffffffffffffffffffff1614610580576040517f08c379a00000000000000000000000000000000000000000000000000000000081526004016105779061186f565b60405180910390fd5b60016004600088815260200190815260200160002060006101000a81548160ff0219169083151502179055506000600360008d815260200190815260200160002054905060008111610607576040517f08c379a00000000000000000000000000000000000000000000000000000000081526004016105fe906118db565b60405180910390fd5b6000600360008e815260200190815260200160002081905550600083905060008173ffffffffffffffffffffffffffffffffffffffff168360405161064b9061192c565b60006040518083038185875af1925050503d8060008114610688576040519150601f19603f3d011682016040523d82523d6000602084013e61068d565b606091505b50509050806106d1576040517f08c379a00000000000000000000000000000000000000000000000000000000081526004016106c89061198d565b60405180910390fd5b8573ffffffffffffffffffffffffffffffffffffffff168d8f7ff2cb7934b2edd473ff169ae33cb60a6d119789746213a170185d8bf6d46934318f604051610719919061139f565b60405180910390a48173ffffffffffffffffffffffffffffffffffffffff168e7f5621778ab13fbf7130d91ae5035a140b79a6cfd120059c2ea0fec2a5ce6731a6856040516107689190611263565b60405180910390a35050505050505050505050505050565b600160009054906101000a900473ffffffffffffffffffffffffffffffffffffffff1673ffffffffffffffffffffffffffffffffffffffff163373ffffffffffffffffffffffffffffffffffffffff1614610810576040517f08c379a0000000000000000000000000000000000000000000000000000000008152600401610807906119f9565b60405180910390fd5b8173ffffffffffffffffffffffffffffffffffffffff166108fc829081150290604051600060405180830381858888f19350505050158015610856573d6000803e3d6000fd5b505050565b60025481565b600160009054906101000a900473ffffffffffffffffffffffffffffffffffffffff1673ffffffffffffffffffffffffffffffffffffffff163373ffffffffffffffffffffffffffffffffffffffff16146108f1576040517f08c379a00000000000000000000000000000000000000000000000000000000081526004016108e8906119f9565b60405180910390fd5b80600160006101000a81548173ffffffffffffffffffffffffffffffffffffffff021916908373ffffffffffffffffffffffffffffffffffffffff16021790555050565b60008054906101000a900473ffffffffffffffffffffffffffffffffffffffff1681565b60036020528060005260406000206000915090505481565b60046020528060005260406000206000915054906101000a900460ff1681565b60008060008060009054906101000a900473ffffffffffffffffffffffffffffffffffffffff1673ffffffffffffffffffffffffffffffffffffffff1663513856c8856040518263ffffffff1660e01b81526004016109f09190611263565b600060405180830381865afa158015610a0d573d6000803e3d6000fd5b505050506040513d6000823e3d601f19601f82011682018060405250810190610a3691906116dd565b9091929394955090919293945090919293509091925050809250819350505080610a95576040517f08c379a0000000000000000000000000000000000000000000000000000000008152600401610a8c90611a65565b60405180910390fd5b81341015610ad8576040517f08c379a0000000000000000000000000000000000000000000000000000000008152600401610acf90611ad1565b60405180910390fd5b600084334243604051602001610af19493929190611b39565b60405160208183030381529060405280519060200120905060016005600083815260200190815260200160002060006101000a81548160ff02191690831515021790555034600360008781526020019081526020016000206000828254610b589190611bb6565b92505081905550803373ffffffffffffffffffffffffffffffffffffffff16867fb420184f3b868a8e48fb200f2460e50bd9f67ac6d6bbb7407237092fe3783fa034604051610ba79190611263565b60405180910390a4809350505050919050565b600160009054906101000a900473ffffffffffffffffffffffffffffffffffffffff1681565b60007f19457468657265756d205369676e6564204d6573736167653a0a33320000000060005281601c52603c6000209050919050565b600080600080610c268686610c42565b925092509250610c368282610c9e565b82935050505092915050565b60008060006041845103610c875760008060006020870151925060408701519150606087015160001a9050610c7988828585610e02565b955095509550505050610c97565b60006002855160001b9250925092505b9250925092565b60006003811115610cb257610cb1611bea565b5b826003811115610cc557610cc4611bea565b5b0315610dfe5760016003811115610cdf57610cde611bea565b5b826003811115610cf257610cf1611bea565b5b03610d29576040517ff645eedf00000000000000000000000000000000000000000000000000000000815260040160405180910390fd5b60026003811115610d3d57610d3c611bea565b5b826003811115610d5057610d4f611bea565b5b03610d95578060001c6040517ffce698f7000000000000000000000000000000000000000000000000000000008152600401610d8c9190611263565b60405180910390fd5b600380811115610da857610da7611bea565b5b826003811115610dbb57610dba611bea565b5b03610dfd57806040517fd78bce0c000000000000000000000000000000000000000000000000000000008152600401610df4919061139f565b60405180910390fd5b5b5050565b60008060007f7fffffffffffffffffffffffffffffff5d576e7357a4501ddfe92f46681b20a08460001c1115610e42576000600385925092509250610eec565b600060018888888860405160008152602001604052604051610e679493929190611c35565b6020604051602081039080840390855afa158015610e89573d6000803e3d6000fd5b505050602060405103519050600073ffffffffffffffffffffffffffffffffffffffff168173ffffffffffffffffffffffffffffffffffffffff1603610edd57600060016000801b93509350935050610eec565b8060008060001b935093509350505b9450945094915050565b6000604051905090565b600080fd5b600080fd5b6000819050919050565b610f1d81610f0a565b8114610f2857600080fd5b50565b600081359050610f3a81610f14565b92915050565b600060208284031215610f5657610f55610f00565b5b6000610f6484828501610f2b565b91505092915050565b60008115159050919050565b610f8281610f6d565b82525050565b6000602082019050610f9d6000830184610f79565b92915050565b6000819050919050565b610fb681610fa3565b8114610fc157600080fd5b50565b600081359050610fd381610fad565b92915050565b600080fd5b600080fd5b6000601f19601f8301169050919050565b7f4e487b7100000000000000000000000000000000000000000000000000000000600052604160045260246000fd5b61102c82610fe3565b810181811067ffffffffffffffff8211171561104b5761104a610ff4565b5b80604052505050565b600061105e610ef6565b905061106a8282611023565b919050565b600067ffffffffffffffff82111561108a57611089610ff4565b5b61109382610fe3565b9050602081019050919050565b82818337600083830152505050565b60006110c26110bd8461106f565b611054565b9050828152602081018484840111156110de576110dd610fde565b5b6110e98482856110a0565b509392505050565b600082601f83011261110657611105610fd9565b5b81356111168482602086016110af565b91505092915050565b600080600080600060a0868803121561113b5761113a610f00565b5b600061114988828901610fc4565b955050602061115a88828901610f2b565b945050604061116b88828901610f2b565b935050606061117c88828901610fc4565b925050608086013567ffffffffffffffff81111561119d5761119c610f05565b5b6111a9888289016110f1565b9150509295509295909350565b600073ffffffffffffffffffffffffffffffffffffffff82169050919050565b60006111e1826111b6565b9050919050565b6111f1816111d6565b81146111fc57600080fd5b50565b60008135905061120e816111e8565b92915050565b6000806040838503121561122b5761122a610f00565b5b6000611239858286016111ff565b925050602061124a85828601610fc4565b9150509250929050565b61125d81610fa3565b82525050565b60006020820190506112786000830184611254565b92915050565b6000611289826111b6565b9050919050565b6112998161127e565b81146112a457600080fd5b50565b6000813590506112b681611290565b92915050565b6000602082840312156112d2576112d1610f00565b5b60006112e0848285016112a7565b91505092915050565b6000819050919050565b600061130e611309611304846111b6565b6112e9565b6111b6565b9050919050565b6000611320826112f3565b9050919050565b600061133282611315565b9050919050565b61134281611327565b82525050565b600060208201905061135d6000830184611339565b92915050565b60006020828403121561137957611378610f00565b5b600061138784828501610fc4565b91505092915050565b61139981610f0a565b82525050565b60006020820190506113b46000830184611390565b92915050565b6113c38161127e565b82525050565b60006020820190506113de60008301846113ba565b92915050565b600082825260208201905092915050565b7f696e766f636174696f6e20756e6b6e6f776e0000000000000000000000000000600082015250565b600061142b6012836113e4565b9150611436826113f5565b602082019050919050565b6000602082019050818103600083015261145a8161141e565b9050919050565b6000819050919050565b61147c61147782610fa3565b611461565b82525050565b6000819050919050565b61149d61149882610f0a565b611482565b82525050565b60006114af828761146b565b6020820191506114bf828661148c565b6020820191506114cf828561148c565b6020820191506114df828461146b565b60208201915081905095945050505050565b7f726573756c7420636f6e73756d65640000000000000000000000000000000000600082015250565b6000611527600f836113e4565b9150611532826114f1565b602082019050919050565b600060208201905081810360008301526115568161151a565b9050919050565b6000611569828861146b565b602082019150611579828761148c565b602082019150611589828661148c565b602082019150611599828561146b565b6020820191506115a9828461146b565b6020820191508190509695505050505050565b6000815190506115cb81610fad565b92915050565b6000815190506115e081611290565b92915050565b600067ffffffffffffffff82111561160157611600610ff4565b5b61160a82610fe3565b9050602081019050919050565b60005b8381101561163557808201518184015260208101905061161a565b60008484015250505050565b600061165461164f846115e6565b611054565b9050828152602081018484840111156116705761166f610fde565b5b61167b848285611617565b509392505050565b600082601f83011261169857611697610fd9565b5b81516116a8848260208601611641565b91505092915050565b6116ba81610f6d565b81146116c557600080fd5b50565b6000815190506116d7816116b1565b92915050565b600080600080600080600060e0888a0312156116fc576116fb610f00565b5b600061170a8a828b016115bc565b975050602061171b8a828b016115d1565b965050604088015167ffffffffffffffff81111561173c5761173b610f05565b5b6117488a828b01611683565b955050606088015167ffffffffffffffff81111561176957611768610f05565b5b6117758a828b01611683565b94505060806117868a828b016115bc565b93505060a06117978a828b016116c8565b92505060c06117a88a828b016115d1565b91505092959891949750929550565b7f6167656e74207369676e6572206e6f7420736574000000000000000000000000600082015250565b60006117ed6014836113e4565b91506117f8826117b7565b602082019050919050565b6000602082019050818103600083015261181c816117e0565b9050919050565b7f696e76616c6964207369676e6174757265000000000000000000000000000000600082015250565b60006118596011836113e4565b915061186482611823565b602082019050919050565b600060208201905081810360008301526118888161184c565b9050919050565b7f6e6f2066756e6473000000000000000000000000000000000000000000000000600082015250565b60006118c56008836113e4565b91506118d08261188f565b602082019050919050565b600060208201905081810360008301526118f4816118b8565b9050919050565b600081905092915050565b50565b60006119166000836118fb565b915061192182611906565b600082019050919050565b600061193782611909565b9150819050919050565b7f7472616e73666572206661696c65640000000000000000000000000000000000600082015250565b6000611977600f836113e4565b915061198282611941565b602082019050919050565b600060208201905081810360008301526119a68161196a565b9050919050565b7f6e6f742061646d696e0000000000000000000000000000000000000000000000600082015250565b60006119e36009836113e4565b91506119ee826119ad565b602082019050919050565b60006020820190508181036000830152611a12816119d6565b9050919050565b7f6167656e7420696e616374697665000000000000000000000000000000000000600082015250565b6000611a4f600e836113e4565b9150611a5a82611a19565b602082019050919050565b60006020820190508181036000830152611a7e81611a42565b9050919050565b7f696e73756666696369656e742066656500000000000000000000000000000000600082015250565b6000611abb6010836113e4565b9150611ac682611a85565b602082019050919050565b60006020820190508181036000830152611aea81611aae565b9050919050565b60008160601b9050919050565b6000611b0982611af1565b9050919050565b6000611b1b82611afe565b9050919050565b611b33611b2e8261127e565b611b10565b82525050565b6000611b45828761146b565b602082019150611b558286611b22565b601482019150611b65828561146b565b602082019150611b75828461146b565b60208201915081905095945050505050565b7f4e487b7100000000000000000000000000000000000000000000000000000000600052601160045260246000fd5b6000611bc182610fa3565b9150611bcc83610fa3565b9250828201905080821115611be457611be3611b87565b5b92915050565b7f4e487b7100000000000000000000000000000000000000000000000000000000600052602160045260246000fd5b600060ff82169050919050565b611c2f81611c19565b82525050565b6000608082019050611c4a6000830187611390565b611c576020830186611c26565b611c646040830185611390565b611c716060830184611390565b9594505050505056fea2646970667358221220721d84567d901ae1b0161fb455742cf1e55723f1bb525d3f22620b227148cd0e64736f6c63430008140033",
  "linkReferences": {},
  "deployedLinkReferences": {}
}